:020000040800F2
:1000000048090020AD020008433B0008C533000842
:10001000413B000843170008255500080000000078
:100020000000000000000000000000002345000860
:10003000FD17000800000000153D000825450008D8
:10004000C7020008C7020008C7020008C70200086C
:10005000C7020008C7020008C7020008C70200085C
:10006000C7020008C7020008C7020008C70200084C
:10007000C7020008C7020008C7020008C70200083C
:10008000C702000800000000C7020008C7020008FD
:10009000C7020008C7020008C7020008C70200081C
:1000A000C7020008C7020008C7020008C70200080C
:1000B000C7020008C7020008C7020008C7020008FC
:1000C000C7020008C7020008C7020008C7020008EC
:1000D000C702000819550008C7020008C702000837
:1000E000C7020008C7020008C7020008C7020008CC
:1000F000C7020008C7020008C7020008000000008D
:1001000000000000C702000800000000C70200084D
:10011000C702000800000000C7020008C70200086C
:10012000C7020008C7020008C7020008C70200088B
:10013000C70200080000000000000000C70200081D
:10014000C7020008C702000800000000000000000D
:10015000000000000000000000000000000000009F
:10016000000000000000000000000000C7020008BE
:10017000C7020008000000000000000000000000AE
:1001800000000000C702000800000000000000009E
:10019000000000000000000000000000000000005F
:1001A0000000000000000000C7020008C7020008AD
:1001B000C7020008C7020008C702000800000000CC
:1001C00000000000C702000800000000000000005E
:1001D000C7020008C702000800F002F800F057F854
:1001E0000AA090E8000C82448344AAF10107DA4592
:1001F00001D100F04CF8AFF2090EBAE80F0013F08D
:10020000010F18BFFB1A43F001031847046F0000E9
:10021000246F0000103A24BF78C878C1FAD852077A
:1002200024BF30C830C144BF04680C607047000070
:100230000023002400250026103A28BF78C1FBD8EF
:10024000520728BF30C148BF0B607047662905F0D0
:100250000A8603681B0A28BF41F08001642900F068
:10026000FB80F52900F03481632900F084850020AB
:1002700070471FB505F0F2FD00F0ACFD0400002052
:10028000002105F0FFFAE0601FBD10B510BD00F0C1
:100290005BFE1146FFF7EDFF05F028FA00F079FE4E
:1002A00003B4FFF7F2FF03BC00F07CFE094880476F
:1002B00009480047FEE7FEE7FEE7FEE7FEE7FEE748
:1002C000FEE7FEE7FEE7FEE704480549054A064B60
:1002D0007047000091450008D9010008480300203C
:1002E00048090020480500204805002053EA020C78
:1002F00000F069802DE9F04B4FF00006002B1FBF86
:10030000B3FA83F503FA05F424FA05F65E4012BF4A
:100310001643B2FA82F502FA05F4C5F120051EBFB4
:1003200022FA05FC44EA0C04203556EA044C4FEA54
:10033000144418BF641C4FF000084FF000099042AD
:1003400071EB030C39D3002919BFB1FA81F701FA17
:1003500007F6B0FA80F700FA07F6C7F120071EBFCC
:1003600020FA07FC46EA0C062037B6FBF4FCA7EBA4
:100370000507103F07F01F0BCBF120060CFA0BFB13
:100380002CFA06F644BFB3460026202FA4BF5E46D3
:100390004FF0000B5BEA060C08BF4FF0010B19EBA6
:1003A0000B09ABFB027C48EB0608C01B06FB02CC2A
:1003B0000BFB03CC71EB0C01C1E70B460246414637
:1003C0004846BDE8F08B13B54FF000004FF0000138
:1003D000AFF30080BDE81C40704700000FB41CB5AF
:1003E000074B06AA7B4469460090059800F0A1FCE3
:1003F0000020694600F0B0FC1CBC5DF814FB000056
:100400007109000070B50C460546012A05D0287810
:10041000800600D5EA69002302E0012305E05B1CA9
:10042000934202D2E05C0028F9D1A869E618C01A0C
:10043000A861286A184428622846AFF3008004E0C7
:10044000D5E9012114F8010B9047B442F8D32846AE
:10045000AFF3008070BD00002DE9F0410646002496
:1004600010687529314616A510D0AFF3008000281A
:1004700002DA404213A507E031688A0701D512A5C8
:1004800002E0490704D511A5012401E0AFF3008083
:1004900000210A2206F1240709E0B0FBF2FCB0FBC0
:1004A000F2F302FB1C00303078541846491C002837
:1004B000F3D123462A463046BDE8F04100F0CCB9DE
:1004C000000000002D0000002B00000020000000B4
:1004D0002DE9F0418046D21D22F007020025D2E925
:1004E0000002F52915A614D0011E72F1000106DAEA
:1004F0000023D0EB030063EB020211A608E0D8F85A
:1005000000108B0701D50FA602E0490701D50EA602
:1005100001251146002408F1240704E000F057F9F2
:1005200030323A55641C50EA0102F7D12B4632466C
:1005300021464046BDE8F04100F08EB900000000C1
:100540002D0000002B000000200000002DE9F047E6
:100550004FF0000A89460446C0F820A02046E16812
:100560008847002876D0252806D0D4E90121904775
:10057000206A401C2062F1E7E16820460026884797
:10058000C4F81CA005460027C4F818A02A2D09D0DD
:10059000284605F0A3F838B304EB8708303DC8F8C7
:1005A000185019E059F8041B204604EB87029161AA
:1005B000E1688847012F054618D1E069002820DA54
:1005C00026F020061DE0D8F8180000EB800005EBAF
:1005D00040003038C8F818002046E16888470546D2
:1005E00005F07CF80028EED1012F0AD02E2D08D17D
:1005F0002046E16888477F1C0546022F46F020060A
:10060000C4DBA069002803DA404246F00106A0617D
:10061000F00701D026F010066C2D0AD0682D08D006
:100620004C2D39D06A2D35D0742D35D07A2D33D05C
:1006300016E0E1682F4620468847B84205460AD1B1
:100640006C2F27D04FF48060E1680643204688472E
:10065000054605E027E06C2F1AD04FF48070064362
:100660000DB3A5F14100192802D8203546F40066E3
:100670004A462946204626604E46FFF7E7FD80B1F0
:1006800001280BD0F61D26F0070000F1080965E7E8
:100690004020E4E78020D7E70020D5E706F10409F1
:1006A0005CE7284661E7206ABDE8F08710B5431C87
:1006B00002E010F8011B71B18107FAD14FF001324D
:1006C00002C88C1A8C4314EAC211F9D0C01A0A0667
:1006D00003D0C01E10BDC01A10BD0A0401D0801E78
:1006E00010BD0902FCD0401E10BD02F0FF0343EA1A
:1006F000032242EA024200F04CBB4FF0000200B578
:10070000134694469646203922BFA0E80C50A0E834
:100710000C50B1F12001BFF4F7AF090728BFA0E8E2
:100720000C5048BF0CC05DF804EB890028BF40F8AE
:10073000042B08BF704748BF20F8022B11F0804FF0
:1007400018BF00F8012B70474FF0013C50F8042B04
:1007500051F8043B9A4221D1A2EB0C03934313EAD4
:10076000CC1317D150F8042B51F8043B9A4215D101
:10077000A2EB0C03934313EACC130BD150F8042BD8
:1007800051F8043B9A4209D1A2EB0C03934313EABC
:10079000CC13DBD04FF00000704700BFD01A01BA75
:1007A000B1FA81F101F0180122FA01F0CB40C1F158
:1007B0002001DBB2C0B2C01A2CFA01F3D11A914366
:1007C00011EAC311E6D1704770477047704730B5E2
:1007D000B0F10A024FEA900E71F100034EEA817EF9
:1007E000B0EB0E0061EB91014FEA101E4EEA017E64
:1007F00010EB0E0041EB11114FEA102E4EEA016E84
:1008000010EB0E0041EB11214FEA104E4EEA014E63
:1008100010EB0E0041EB1141401841F100014FEA8D
:10082000D00040EA41704FEAD10110EB80054FEA59
:10083000810444EA907444EB01046D1944EB040410
:10084000521BA3414FF0000348BF0A3200D530BD10
:10085000401C41F1000130BD2DE9F0470D4699469D
:100860009246044600F124080168880604D5E06930
:1008700021F01001216000E00120A84201DD471BAA
:1008800000E00027A1697A1902EB0900081AA061AB
:100890002078C00602D42046AFF30080002608E08E
:1008A000D4E901211AF806009047206A401C761C02
:1008B00020624E45F4DB2078C0060AD52046AFF30F
:1008C000008006E0D4E9012130209047206A401CD6
:1008D0002062381EA7F10107F4DC07E0D4E901210A
:1008E00018F805009047206A401C2062281EA5F1D8
:1008F0000105F3DC2046AFF300802078000602D526
:100900000220BDE8F0870120FBE770472DE9FF4F8B
:100910000C461E464FF0FF378BB0D2E90001DDF8E0
:1009200060800A908A46C1F30A5505B93D46002108
:1009300008464FF00000BAF1000F00F4400005DA5D
:1009400000EB80004FF4400101EA50004FEA90595B
:10095000B9F1010F00DDB9460A9850EA4A000ED0FD
:1009600044F61050A5F2FF3545432F14B8F1000F9F
:100970001ED07542291E1EDDC9F100021CE0B8F12F
:10098000010F4FF0000001D0302103E0F24305E0F9
:100990002154401CB042FBDB304600220021215490
:1009A0000B99C1F80880C1E900200FB0BDE8F08FB5
:1009B000BD1B6D1CDEE74A4600DA694206A800F05E
:1009C0004DFA06AB93E8070003AB83E807005046F7
:1009D0000A9900F0EEFA8DE80700A0F500501F38E4
:1009E00000900398002D0ADD42F21F014A46084498
:1009F000002303A90390684600F057FD09E0A0F525
:100A000000504A461F38002303A90390684600F0AF
:100A100061FD8DE807000004000C03D04FF0FF30AB
:100A2000410800E01046B8F1000F03D00022009208
:100A300015461EE0751E05D4FFF7C9FE303262551B
:100A40006D1EF9D5B3460122084302D000227F1C57
:100A500004E02078302801D100227F1E002A099767
:100A600084D01DE0112D07DAFFF7B1FE3032625558
:100A70006D1C50EA0102F5D1084302D00098C8B1BC
:100A80000EE00021681E05E0235C625C6354225482
:100A9000401E491C8142F7DBAB46A81B401E099053
:100AA000002004F80B000B98099AC0F80880C0E9F0
:100AB000002B7AE711264FF0000857E72DE9F04F99
:100AC00088460446D21D22F0070191B0D1E9000109
:100AD000CDE90A0104F0DAFD02460B98C00F01D0FF
:100AE0002D2007E02068810701D52B2002E020217E
:100AF00001EAC000032A099001D0072A05DB03465A
:100B00004146204600F06AF90BE12078800601D5C5
:100B1000E06900E00620B8F1650F814606D0B8F123
:100B2000660F18D0B8F1670F70D131E00020B9F12D
:100B3000110F009001DB112301E009F101030AAA62
:100B400001A90CA8FFF7E2FEDDE90C70002609F10F
:100B50000105834647E001204B4600904FF00047D7
:100B60000AAA01A90CA8FFF7D1FEDDE90DB00C9986
:100B70005D46002610B909F101000D18B9EB05001A
:100B800003D4C0F1FF3609F10105A5EB09002BE004
:100B9000B9F1010F01DA4FF001090020B9F1110F8D
:100BA0000090484601DD112300E003460AAA01A98E
:100BB0000CA8FFF7ABFEDDE90C704D46002683461E
:100BC000207800070AD4AB4500DA5D4601A8012D64
:100BD00004DD411911F8011C302907D04F4502DA14
:100BE00017F1040F04DA012082460FE06D1EEEE7D4
:100BF000002F02DCED1B3E4403E0781CA84200DD20
:100C00007D1CB81B00F1010A4FF000472078000757
:100C100003D4AA4501DB4FF0FF3A0021B7F1004FA2
:100C20000DF143088DF8431024D002202B23002F10
:100C300001DA7F422D230A21021EA0F1010000DC0F
:100C40005FB197FBF1FC97FBF1F201FB1C7C1746AF
:100C50000CF1300C08F801CDEEE7A8F101000370AB
:100C60002188090501D5452100E06521A0F1010891
:100C700000F8011C09980FA9A1EB0807FF1D00B19E
:100C80000120411901EBEA70A1693844081A401E9D
:100C9000A0612078C00602D42046AFF300800998F6
:100CA00028B1D4E901219047206A401C20622078B5
:100CB000C00622D52046AFF300801EE0002E04DBE4
:100CC000B34502DD01A8805D00E03020D4E90121B8
:100CD0009047206A401C2062761CAAF101005FEA5E
:100CE000000A0AD100F076F8C0680168405CD4E9D7
:100CF00001219047206A401C2062281EA5F10105B1
:100D0000DCDC07E0D4E9012118F8010B9047206AE8
:100D1000401C2062381EA7F10107F3DC2046AFF328
:100D20000080032011B041E601694A1C0261087885
:100D3000704700B58FB0CDE901310021059105491B
:100D40007944CDE9031011466846FFF7FFFB0FB069
:100D500000BD0000E5FFFFFF0A6802F8010B0A6012
:100D6000704710B5436913B1AFF3008001E0FFF79E
:100D700049FB012010BD127800F124010A70002205
:100D80004A700122EDE711684FF0FF32E9E74FF0BA
:100D900000020429C0F0128010F0030C3FF4AFAC45
:100DA000CCF1040CBCF1020F18BF00F8012BA8BF56
:100DB00020F8022BA1EB0C01FFF7A1BC5FEAC17C7C
:100DC00024BF00F8012B00F8012B48BF00F8012BCD
:100DD0007047000000487047080300202DE9F041EB
:100DE0001F46044603260168072A01F4006004DB5D
:100DF00008B116A505E016A503E008B115A500E0A9
:100E000015A521F010002060A069C01EA0610FB1DF
:100E1000401EA0612046AFF300804FB1D4E901210C
:100E200038469047206A401C2062C01C206206E0C1
:100E3000206AFAE7D4E9012115F8010B9047761EE4
:100E4000F8D22046AFF30080BDE8F0814E414E005D
:100E50006E616E00494E4600696E66002DE9F047EE
:100E6000814616468AB0354878440DC88DE80D0095
:100E700032487844801C03AC0DC884E80D0041F66C
:100E80009B300844372190FBF1F290FBF1F5A5F17E
:100E9000800501FB12041B3C02D56442012000E0E6
:100EA0000020DFF898A080460027FA44AAF1BE0A85
:100EB0000EE0E0070AD03246684607EB47010123FF
:100EC0000AEB810100F006FB8DE8070064107F1C2F
:100ED000002CEED1194F7F44AE3F19E0E80715D042
:100EE00007EB04100DF1180A90E80E008AE80E00D6
:100EF000C068F04201D1981908903246012306A932
:100F000003A800F0E7FA03AB83E807006D10641C48
:100F1000002DE3D14FF0010332466946B8F1000FCE
:100F200003A802D000F0C1FA01E000F0D3FAC9E949
:100F30000001C9F808200AB0BDE8F0878C62000003
:100F400000487047E80200207546FFF7F9FFAE46FB
:100F500005006946534620F00700854618B020B5C5
:100F6000FFF7B2F9BDE820404FF000064FF0000750
:100F70004FF000084FF0000B21F00701AC46ACE841
:100F8000C009ACE8C009ACE8C009ACE8C0098D46AE
:100F9000704710B50446AFF300802046BDE810400E
:100FA000FFF77EB901491820ABBEFEE7260002001C
:100FB00070475FEA400C08BF91F0000F4FEA8C23A6
:100FC0004FEAC12243EA51514FEA1C5018BF00F5C5
:100FD000F0404FEA300018BF41F000415FEA6C5C1E
:100FE00000F02980BCF1FF3F08BF40F0804070470F
:100FF000130C06BF12044FF0100C4FF0000C130E30
:1010000004BF12020CF1080C130F04BF12010CF103
:10101000040C930F04BF92000CF1020CD30F04BF19
:1010200052000CF1010C11464FF00002A0F11F001C
:10103000A0EB0C00704711F0004F08BF704731F073
:1010400000413FF4D5AF0B0C06BF09044FF0100C64
:101050004FF0000C0B0E04BF09020CF1080C0B0F33
:1010600004BF09010CF1040C8B0F04BF89000CF1C3
:10107000020CCB0F04BF49000CF1010CCCF1200392
:10108000A0EB0C0022FA03F302FA0CF241EA03018E
:1010900000F10100704720F07F4C80EA030023F04C
:1010A0007F47ACEB070303F57C5300F0004003F1EE
:1010B000FF032DE980494FEA154B09B44FEA144369
:1010C00025EA0B4E24EA03480FF2042606EB132709
:1010D00049083E785FEA320203FB0667C7F500075E
:1010E00007FB06F64FEA54374FEAD64606F10206EA
:1010F00007FB066CCCF1005C4FEA1C472CEA074C5E
:1011000007FB06F40CFB06F504EB15464FEA9616B2
:1011100034BF00204FF000404FEAD13706FB07FCF8
:101120004FEA1C4C0CFB0BF7D21B03FB0CF761EBDB
:1011300007010CFB0EF7B0EB074072EB17420CFBFC
:1011400008F734BFA2EB0742B2EB074261EB17414D
:101150004FEA0C444FEA910706FB07FC4FEA1C4C90
:101160000CFB0BF7B0EBC74072EB573203FB0CF7ED
:1011700034BFA2EBC742B2EBC74261EB57310CFB65
:101180000EF7B0EBC70072EB57720CFB08F734BFD9
:10119000A2EBC702B2EBC70261EB5771039F4FEAA4
:1011A000816141EA921104EBCC044FEAD1374FEA56
:1011B000826206FB07FC42EA90124FEA80604FEA27
:1011C0001C4C0CFB0BF7D21B03FB0CF761EB07016C
:1011D0000CFB0EF7B0EB074072EB17420CFB08F765
:1011E00034BFA2EB0742B2EB074261EB17414FEA73
:1011F0008C554FEA910704EB9C2406FB07FC4FEA51
:101200001C4C0CFB0BF7B0EBC74072EB573203FBE7
:101210000CF734BFA2EBC742B2EBC74261EB5731C8
:101220000CFB0EF7B0EBC70072EB57720CFB08F724
:1012300034BFA2EBC702B2EBC70261EB577115EBEB
:101240004C254FEA816141EA92114FEA82624FEAEE
:10125000D13742EA901206FB07FC44F100044FEA42
:1012600080604FEA1C4C0CFB0BF7D21B03FB0CF706
:1012700061EB07010CFB0EF7B0EB074072EB174276
:101280000CFB08F734BFA2EB0742B2EB074261EB5D
:10129000174115EB1C154FEA813141EA92414FEAA3
:1012A000823242EA90424FEA80304FEA0C7644F1B3
:1012B000000448EA03434EEA0B484FF0000EB2EB3D
:1012C000080C71EB030724BF624639464EEB0E0E45
:1012D0004FF0000B0018524149414BEB0B0BB2EBA6
:1012E000080C71EB03077BF1000B24BF6246394603
:1012F0004EEB0E0E4FF0000B0018524149414BEBE4
:101300000B0BB2EB080C71EB03077BF1000B24BF56
:10131000624639464EEB0E0E51EA020718BF46F000
:10132000010616EB0E7655F1000254F1000103D5CB
:10133000BDE88901BDE80088BDE88901BDE8004835
:10134000B619524141EB0101A3F1010370478080BE
:101350007F7E7D7C7B7A797877767675747372710F
:1013600071706F6E6E6D6C6C6B6A6A6968686766C7
:1013700066656464636362616160605F5F5E5E5D59
:101380005D5C5C5B5B5A5A595958585757565655CD
:1013900055555454535352525251515050504F4F2F
:1013A0004F4E4E4D4D4D4C4C4C4B4B4B4A4A4A497F
:1013B00049494848484747474746464645454544C2
:1013C0004444444343434342424242414141002B4F
:1013D0009C4630D477002BD01CB54FEA370703B4B6
:1013E0004FF010004FF01001BAF1000F06D0BCF121
:1013F000000FDCBF40F0080040F008014FF0000093
:101400000FBCBDE810400BF1010BBBF1010F08BF91
:101410005FEA170722BF12F1010211F101014FF03B
:10142000004143F1000300F0004043EA0000704730
:10143000F9D35708D0E746EA064613F1400F4FEAC2
:1014400016461FDD13F1200FDFBF16430A460021A9
:1014500020335B42BED0C3F1200746EA064602FABB
:1014600007F74FEA164646EA0706C3F1200722FAB5
:1014700003F201FA07F721FA03F14FF0000342EA01
:101480000702A7E746EA020646EA06464FEA16467C
:1014900046EA0106BCBF46EA0646360C4FF000039A
:1014A0004FF000024FF0000194E72DE9804C9A467E
:1014B000934670B491E8380007C831EA400C48BF41
:1014C00034EA430C03D5FFF7E6FDFFF780FFF0BCDD
:1014D000BDE8008C2DE9804C9A46934670B491E8A3
:1014E000380007C810F0804F08BF13F0804F03D1B9
:1014F00000F005F8FFF76BFFF0BCBDE8008C20F0B2
:101500007F4780EA030023F07F4C07EB0C03A3F531
:101510007C5300F00040A3F1FE0392F0000F00F0B6
:10152000B38095F0000F00F077802DE901494FEA74
:1015300011404FEA144621EA004800FB06FC24EA69
:10154000064708FB06F607FB08F800FB07F718EB51
:1015500006484CEB164C4FEA124B18EB07484FEA83
:1015600015464CEB174022EA0B4E0BFB06FC25EA16
:1015700006470EFB06F607FB0EFE0BFB07F71EEBFE
:10158000064E4CEB164C4FF000061EEB074E4CEB94
:10159000174B18EB0B0840F1000018EB0E0B58EB43
:1015A000000840F100008F1A4FF000013CBFC94312
:1015B000661B14BFB5EB040C00213CBFC943F61BEE
:1015C0004FEA17444EEA8E0E27EA04454FEA1C47BD
:1015D00004FB07622CEA074C05FB07F70CFB05F63A
:1015E00004FB0CFC16EB074642EB174216EB0C46CD
:1015F00042EB1C421BEB060658EB0202414146EA55
:101600009E0601D5BDE80189B619524141EB0101A1
:10161000A3F10103BDE801894FEA14454FEA1147E0
:1016200024EA054621EA074C05FB07F406FB07F709
:101630000CFB06F105FB0CFC11EB074144EB1744D6
:101640004FEA124711EB0C4144EB1C4422EA074CD1
:1016500005FB07F206FB07F70CFB06F605FB0CFC87
:1016600016EB074642EB174216EB0C4642EB1C45C5
:101670006A1854F1000148BF7047B619524141EB56
:101680000101A3F10103704795F0000F37D04FEA35
:1016900011424FEA144721EA024624EA074C02FBB2
:1016A00007F106FB07F70CFB06F402FB0CFC14EB3E
:1016B000074441EB17414FEA154714EB0C4441EB4B
:1016C0001C4125EA074C02FB07F506FB07F70CFB5C
:1016D00006F602FB0CFC16EB074645EB174516EB2E
:1016E0000C4645EB1C42121951F1000148BF7047EE
:1016F000B619524141EB0101A3F1010370474FEAD2
:1017000014454FEA114724EA054621EA074C05FB38
:1017100007F106FB07F70CFB06F24FF0000605FB8E
:101720000CFC12EB074241EB174112EB0C4251EB60
:101730001C4148BF7047921841EB0101A3F101031E
:101740007047FEE72DE9F047294E0020351F295C40
:101750003154401C0428FADB264C0121204600F0BD
:1017600005FA28700221204600F000FA6870042172
:10177000204600F0FBF9A87001214FF0904000F0E6
:10178000F5F900241A4FDFF87080E87042F2107A01
:10179000A1463F1D305D012801D040B122E0285D07
:1017A00000BB142000F0ACF8C8F824901AE0285DC3
:1017B00010B101280AD015E0D8F82410514511D3F2
:1017C000385D78B9012038550B3406E0142000F05C
:1017D00097F8385D012803D0641CE0B2BDE8F087BB
:1017E00007F80490641C042CD4DB0020F6E700000A
:1017F00034000020000400480040014070470022EF
:1018000040F6B83306E00021491C89B29942FBD367
:10181000521C92B28242F6D3704772B6FEE710B500
:1018200090F8253000210122022B03D00421C1634E
:10183000012122E003681C6824F00E041C60836C04
:101840001C6824F480741C6003681C6824F0010484
:101850001C6090F84430046C03F01F0302FA03F399
:101860006360D0E913345C60436D33B11C6824F4C9
:1018700080741C60D0E916345C6080F8252000225A
:1018800080F82420084610BD70B590F8252000246B
:1018900001212346022A07D00422C26380F82510C2
:1018A00080F82430012429E00268156825F00E052F
:1018B00015600268156825F001051560826C1568D1
:1018C00025F48075156090F84420056C02F01F0225
:1018D00001FA02F26A60D0E913255560426D32B117
:1018E000156825F480751560D0E91625556080F8D7
:1018F000251080F82430816B01B18847204670BDE7
:1019000070B5044600F03CF90546601C02D004485E
:101910004068044400F034F9401BA042FAD370BD83
:10192000000000202DE9F04FDFF82092002301266F
:101930000324A9F1040B85B00F2709F1040AABF1C8
:10194000040EFAE006FA03F52A407CD091F804C0B0
:101950000CF0030CBCF1010F02D0BCF1020F26D138
:10196000D0F808C0CDF800C04FEA430C04FA0CF8D8
:10197000CDF810C0DDF800C02CEA080CCDF800C08E
:10198000D1F80C80DDF810C008FA0CF8DDF800C0C2
:1019900048EA0C08C0F80880D0F804C02CEA050C0E
:1019A0000D79C5F300159D4045EA0C0545600D799C
:1019B000ED43AD070ED0C5684FEA430804FA08FCB2
:1019C00025EA0C05D1F808C00CFA08FC4CEA050C15
:1019D000C0F80CC00D7905F00305022D16D1DD0805
:1019E00000EB850CCDF808C0DCF820805D074FEADD
:1019F000D56C07FA0CF528EA05080D6905FA0CF50F
:101A0000DDF808C045EA0805CCF8205005684FEA23
:101A1000430CCDF808C004FA0CFC25EA0C0591F83B
:101A200004C00CF00308DDF808C008FA0CF848EA16
:101A30000508C0F800804D6815F4403F7CD0444D47
:101A4000D5F860C000E077E04CF0010CC5F860C04C
:101A50002D6E23F0030C05F0010500953D4D654406
:101A60000295AD684FEA837C4FEA1C7807FA08FCC0
:101A700025EA0C05B0F1904F06D0DFF8DCC06045D8
:101A800005D14FF0010C20E04FF0000C1DE0DFF815
:101A9000CCC0604502D14FF0020C16E0DFF8C0C0A8
:101AA000604502D14FF0030C0FE0DFF8B8C060458D
:101AB00002D14FF0040C08E0DFF8ACC0604502D161
:101AC0004FF0050C01E04FF0060C0CFA08FC4CEA54
:101AD000050C029DC5F808C0D9F80050CC46D1F8D5
:101AE000048095435FEAC82800D51543CCF8005020
:101AF000DAF80050D446D1F8048095435FEA88288C
:101B000000D51543CCF80050DBF80050DC46D1F886
:101B1000048095435FEA883800D51543CCF800501F
:101B2000DEF80050F446D1F8048095435FEAC838E7
:101B300000D51543CCF800505B1C0A6832FA03F557
:101B40007FF400AF05B0BDE8F08F0000080401404D
:101B50000010024000000140000400480008004856
:101B6000000C0048001000480014004800690840BC
:101B700000D0012070470AB18161704781627047CF
:101B8000014880687047000000000020024881681A
:101B900042681144816070470000002010B50024A5
:101BA000032000F073F80F2000F008F808B10124BA
:101BB00001E000F025F8204610BD000070B50E4E83
:101BC00005460024706898B14FF47A71B1FBF0F0CB
:101BD0000A490968B1FBF0F000F060FD40B9102D32
:101BE00006D200222946501E00F030F8356000E091
:101BF0000124204670BD0000000000200C000020E1
:101C00000A4882B0016E41F001010166016E01F0E7
:101C100001010091816D41F080518165806D00F07E
:101C20008050009002B000F0A1B800000010024007
:101C3000002809DB00F01F020121914040098000CB
:101C400000F1E020C0F8001170470000F0B40E4B26
:101C50001B680C46C3F30223C3F10705042D00D90A
:101C60000425191D072901D2002300E0DB1E0126EF
:101C700006FA05F1491E214099409E40761E164005
:101C80003143F0BC03F01ABD0CED00E0064900F052
:101C9000070208684FF6FF03184040EA0220034A93
:101CA00010430860704700000CED00E00000FA05EA
:101CB0002B492C4B0A6832214A432B4940B1B0F5DD
:101CC000007F086829D020F4C06040F480602CE0D8
:101CD0000868C0F34120022804D051F8800F20F496
:101CE000807022E0D1F8800020F48070C1F880007C
:101CF000086820F4C06040F400700860B2FBF3F0A4
:101D0000401C00E0401E4A69520501D50028F9D167
:101D1000486940050AD503207047C0F341200228D6
:101D200006D051F8800F40F48070086000207047A2
:101D3000D1F8800040F48070C1F88000086820F479
:101D4000C06040F400700860B2FBF3F0401C00E09B
:101D5000401E4A695205DBD50028F9D1D8E70000BA
:101D60000C00002040420F000070004002488168D3
:101D700041F4804181607047007000402DE9F843D4
:101D80000446006800269D4D00035ED5A86D00271F
:101D9000C00008D4A86D40F08050A865A86D012748
:101DA00000F080500090DFF85892D9F8001041F40C
:101DB0008071C9F80010FFF7E3FE804606E000BF1F
:101DC000FFF7DEFEA0EB080002282BD8D9F80000B0
:101DD000C005F5D5D5F8900010F4407014D0216CF2
:101DE000814211D0D5F89000D5F8901020F44070C1
:101DF00041F48031C5F89010D5F8901021F480316D
:101E0000C5F89010C5F89000C00711D0FFF7B8FED4
:101E1000804641F2883907E0FFF7B2FEA0EB0801E7
:101E2000494501D903260BE0D5F890008007F3D58A
:101E3000D5F89000216C20F440700843C5F890005C
:101E40001FB1A86D20F08050A8652078C00707D08A
:101E5000D5F88800616820F003000843C5F88800C1
:101E60002078800707D5D5F88800A16820F00C00FD
:101E70000843C5F888002078400707D5D5F88800C2
:101E8000E16820F030000843C5F88800207800079A
:101E900007D5D5F88800216920F0C0000843C5F8AF
:101EA00088002078800607D5D5F88800616920F47D
:101EB00040600843C5F888002078400607D5D5F86B
:101EC0008800A16920F440500843C5F888002078B4
:101ED000000607D5D5F88800E16920F440400843A2
:101EE000C5F888002088C00507D5D5F88800216A84
:101EF00020F440300843C5F888002088800507D5C5
:101F0000D5F88800616A20F440200843C5F88800AD
:101F1000208840050FD5D5F88800A16A20F440102C
:101F20000843C5F88800A06AB0F5801F03D1E868AF
:101F300040F48010E860208800050FD5D5F88800AF
:101F4000E16A20F440000843C5F88800E06AB0F573
:101F5000800F03D1E86840F48010E8602088C00456
:101F60000FD5D5F88800216B20F040700843C5F8E4
:101F70008800206BB0F1807F03D1E86840F48010C6
:101F8000E86020884FF0006180040ED5D5F8880005
:101F9000626B20F040601043C5F88800606B884297
:101FA00003D1E86840F48010E860208840040ED532
:101FB000D5F88800A26B20F040601043C5F8880077
:101FC000A06B884203D1E86840F48010E860208864
:101FD00000040FD5D5F88800E16B20F0405008438D
:101FE000C5F88800E06BB0F1805F03D1E86840F489
:101FF0008030E8603046BDE8F88300000010024001
:10200000007000402DE9F0470E4605004FF0000734
:1020100025D0DFF8AC81D8F8000000F00F00B04206
:102020000CD2D8F8001021F00F013143C8F800108D
:10203000D8F8000000F00F00B04210D12968614CC0
:10204000C80741F2883A5AD06868DFF87C910328C3
:1020500008D0022820682DD0400500282CDB012064
:10206000BDE8F08720688001F9D5E06800F0030240
:10207000E068C0F30310401C032A19D0534A00BF84
:10208000B2FBF0F0E268C2F306225043E268C2F30A
:102090004162521C5200B0FBF2F0484517D9A068CB
:1020A00010F0F00F0CD0880711D5A86840B10EE0F1
:1020B000474AE5E78003D0E700F0B6F8484506D97F
:1020C000A06820F0F00040F08000A0608027A068A9
:1020D000696820F003000843A060FFF751FD8146C6
:1020E00006E000BFFFF74CFDA0EB090151453AD8CF
:1020F000A068696800F00C00B0EB810FF2D128688D
:10210000810714D5400703D5A06840F4E060A060C3
:102110002878000705D5A06820F4605040F4E060FE
:10212000A060A068A96820F0F000084304E0802FB8
:1021300003D1A06820F0F000A060D8F8001040465D
:1021400001F00F01B14216D9016821F00F013143AE
:102150000160FFF715FD074607E000BFFFF710FD20
:10216000C11B514501D903207AE7D8F8000000F0DF
:102170000F00B042F2D12878400705D5A068E96881
:1021800020F4E0600843A0602878000706D5A06826
:10219000296920F4605040EAC100A06000F044F8D2
:1021A000A1680C4AC1F30311515C01F01F01C84042
:1021B0000949086009480068BDE8F047FFF7FEBC20
:1021C000002002400010024000B4C4040024F400C7
:1021D00000366E01925E00080C0000200000002016
:1021E0000548064900688968054AC1F30221515C27
:1021F00001F01F01C84070470C0000200010024091
:10220000A25E00080548064900688968054AC1F3CE
:10221000C221515C01F01F01C84070470C00002032
:1022200000100240A25E0008184910B58868C0F38B
:1022300081021748012A0BD08A68164BC2F381022B
:10224000022A06D08A68C2F38102032A03D0002042
:1022500010BD184610BDCA6802F00304CA68C2F374
:102260000312521C032C02D0B0FBF2F001E0B3FBCE
:10227000F2F0CA68C968C2F306225043C1F3416153
:10228000491C4900B0FBF1F010BD000000100240F5
:102290000024F40000366E012DE9F84304007AD0E2
:1022A0002078F84DC00747D0A868E96800F00C0016
:1022B00001F003010C2802D0082817D001E00329FF
:1022C00014D06068B0F5803F17D0B0F5A02F286813
:1022D00017D020F480302860286820F480202860FF
:1022E0006068E0B1FFF74CFC064614E02868800304
:1022F00022D560680028D2D01EE0286840F48030E3
:10230000EDE740F480202860F7E700BFFFF738FCD6
:10231000801B642870D828688003F7D50CE0FFF78D
:102320002FFC064605E000BFFFF72AFC801B64284F
:10233000F0D828688003F7D4207880074CD5A868A7
:10234000E96800F00C0001F003010C2802D0042819
:102350000DD001E002290AD0E068002828682BD0BF
:1023600040F480702860FFF70BFC064619E02868EF
:10237000400502D5E068002891D06868217C20F0F3
:10238000FE4040EA01606860BF480068FFF716FC45
:10239000002800D120E072E1FFF7F2FB801B022849
:1023A000B8D828684005F7D56868217C20F0FE4041
:1023B00040EA016068600FE020F480702860FFF759
:1023C000DFFB064605E000BFFFF7DAFB801B0228B3
:1023D000A0D828684005F7D42078000729D560697F
:1023E0000028D5F8940013D040F00100C5F89400FF
:1023F000FFF7C6FB064606E090E000BFFFF7C0FB14
:10240000801B022886D8D5F894008007F6D510E006
:1024100020F00100C5F89400FFF7B2FB064604E087
:10242000FFF7AEFB801B022878D8D5F89400800710
:10243000F6D42078400761D5A86D0026C00008D4E6
:10244000A86D40F08050A865A86D012600F080506E
:1024500000908E480168C90511D40168804641F496
:1024600080710160FFF78CFB074604E0FFF788FBF3
:10247000C01B022852D8D8F80000C005F6D5A068C5
:10248000012815D00528D5F8900016D020F00100BD
:10249000C5F89000D5F8900020F00400C5F8900031
:1024A000A06841F28838B8B1FFF76AFB07460EE032
:1024B000D5F8900040F00100F0E740F00400C5F8C6
:1024C0009000F5E7FFF75CFBC11B414526D8D5F826
:1024D00090008007F6D50CE0FFF752FB074604E0BA
:1024E000FFF74EFBC11B414518D8D5F89000800777
:1024F000F6D41EB1A86D20F08050A8652078800623
:1025000029D5A0690028D5F8980013D040F0010023
:10251000C5F89800FFF734FB064606E075E000BFFB
:10252000FFF72EFB801B02286FD8D5F89800800794
:10253000F6D510E020F00100C5F89800FFF720FB69
:10254000064604E0FFF71CFB801B02285DD8D5F887
:1025500098008007F6D4E069F0B3A968C1F381015F
:1025600003295DD00228286820F08070286003D0FD
:10257000FFF706FB04464BE0FFF702FB064604E0CC
:10258000FFF7FEFA801B02283FD828688001F7D4A5
:10259000F4E908016FF00F0202EB01110843218AF0
:1025A0005204490802EB4151A26841EA0221084362
:1025B000217D4FF07E42490802EB41610843217BB7
:1025C00040EAC160E968324A11400843E86028687F
:1025D00040F08070286000E05EE0E86840F08070C5
:1025E000E860FFF7CDFA044605E000BFFFF7C8FA40
:1025F000001B022809D828688001F7D54CE000BFED
:10260000FFF7BEFA001B022802D90320BDE8F883B9
:1026100028688001F4D4E8681E490840E8603BE07F
:102620000128F3D0E868226A00F00301914226D124
:10263000616A00F0F0020901103991421FD1A26ACB
:1026400000F4FE41B1EB022F19D194F82C2000F0D8
:102650007841B1EBC26F12D1218E00F4C00249085B
:102660004905A1F50011914209D194F8341000F008
:10267000C06049084906A1F1007181420CD00120D7
:10268000C4E700000010024000000020007000407D
:102690000C809F01FCFFEEFE0020B7E710B5401E46
:1026A000B0F1807F01D3012010BD4FF0E0246061C4
:1026B0000F21601703F002F80020A06107202061BD
:1026C000002010BD30B590F83C20012A42D00122F4
:1026D00080F83C20CA688B6822F440721A434B6829
:1026E00022F480621A430B6822F400621A430B69D9
:1026F00022F480521A434B6922F400521A430B6BA6
:1027000022F480421A430B8B22F4702242EA0342E5
:10271000CB6922F080521A430F4D03680024AB426C
:1027200002D00E4DAB4210D10D8D22F4700242EA60
:1027300005520D6A22F080722A434D6A22F000721F
:102740002A43C96A22F000520A435A6480F83C4086
:10275000002030BD022030BD002C0140003401407B
:10276000F0B590F83C20012A3AD0012580F83C5081
:10277000022280F83D2003685A689C68194E1A4F5F
:10278000B34201D0BB4204D122F4700C4A6842EA41
:102790000C02DFF858C002EA0C02D1F800C04CEA83
:1027A000020CC3F804C00268B2420DD0B2F1804FEF
:1027B0000AD00F4B9A4207D00E4B9A4204D0BA422D
:1027C00002D00D4B9A4204D1896824F0800319434A
:1027D000916080F83D50002180F83C100846F0BD23
:1027E0000220F0BD002C0140003401408FFFFFFDAE
:1027F00000040040000800400040014010B5040003
:1028000003D094F83D0010B107E0012010BD002076
:1028100084F83C00204600F023F8022084F83D00B4
:10282000211D206801F0BCFE012084F8480084F8D6
:102830003E0084F83F0084F8400084F8410084F8AA
:10284000420084F8430084F8440084F8450084F88A
:10285000460084F8470084F83D00002010BD0000C9
:1028600008B5124A01681248914207D1016E41F43D
:1028700080310166006E00F4803009E00D4A91421B
:1028800008D1016E41F400310166006E00F40030A1
:10289000009008BD084A9142FBD1016E41F48021AD
:1028A0000166006E00F48020F2E700000040014065
:1028B00000100240004401400048014090F83D10E3
:1028C000012901D001207047022180F83D100068E5
:1028D0000F4988420ED0B0F1804F0BD00D4988428D
:1028E00008D00D49884205D00C49884202D00C49D5
:1028F000884207D181680B4A1140062906D0B1F5FC
:10290000803F03D0016841F0010101600020704761
:10291000002C014000040040000800400034014049
:10292000004001400700010070B5044690F83C00EB
:102930000025012814D0012684F83C60022084F888
:102940003D0022689068364B184020F47F4090602C
:10295000086870282ED010DC10F00F0F03D021E093
:102960004FF0020070BD4FEA2012072A1AD2DFE8AA
:1029700002F0525252524A3840002A4BC21A984230
:1029800049D009DCB0F5805F0DD0B0F5005F1CD0F8
:10299000B0F1101F06D13EE0102A3CD0202A3AD0D8
:1029A000502A38D0012584F83D60002084F83C008E
:1029B000284670BDCB68D1E90121206801F05BFE9B
:1029C0002068816841F0770109E0CB68D1E90121F5
:1029D000206801F050FE2068816841F480418160E8
:1029E000E1E7CA684968206801F0F0FF50212068DB
:1029F00006E0CA684968206801F0F9FF6021206894
:102A000001F044FECFE7CA684968206801F0DEFFA4
:102A100040212068F4E7226801461046F0E70000F4
:102A200088FFCEFF2000100010B586B004461421A8
:102A30006846FDF762FE0E492068884216D10D48AF
:102A4000C16C41F00101C164C06C694600F0010035
:102A500005908020009002200190002002900390B9
:102A6000012004904FF09040FEF75CFF06B010BDCF
:102A7000004801400010024070B5044690F83C0048
:102A800000260D4601280BD0012084F83C000C2ABA
:102A90004AD007DC82B1042A20D0082A06D131E0CE
:102AA000022070BD102A53D0142A63D001260020C2
:102AB00084F83C00304670BD206801F0F1FD2068CC
:102AC000816941F0080181612068816921F0040178
:102AD0008161206881692A69114311E0206801F051
:102AE0002DFE2068816941F400618161206881695F
:102AF00021F480618161206881692A6941EA0221AB
:102B00008161D4E7206801F061FE2068C16941F06D
:102B10000801C1612068C16921F00401C161206818
:102B2000C1692A69114311E0206801F097FE20680D
:102B3000C16941F40061C1612068C16921F480610B
:102B4000C1612068C1692A6941EA0221C161AEE719
:102B5000206801F0CBFE2068016D41F0080101659D
:102B60002068016D21F0040101652068016D2A696A
:102B7000114311E0206801F0F1FE2068016D41F47D
:102B8000006101652068016D21F4806101652068A4
:102B9000016D2A6941EA0221016588E710B5040048
:102BA00003D094F83D0010B107E0012010BD0020D3
:102BB00084F83C00204600F022F8022084F83D0012
:102BC000211D206801F0ECFC012084F8480084F805
:102BD0003E0084F83F0084F8400084F8410084F807
:102BE000420084F8430084F8440084F8450084F8E7
:102BF000460084F8470084F83D00002010BD70476F
:102C000030B50446022269B1042912D0082917D030
:102C10000C291CD0102921D094F84300012824D07D
:102C2000012030BD94F83E000128F9D184F83E20FF
:102C30001DE094F83F000128F2D184F83F2016E00F
:102C400094F840000128EBD184F840200FE094F87C
:102C500041000128E4D184F8412008E094F84200C2
:102C60000128DDD184F8422001E084F843200122CC
:102C7000206801F0F3FC194B20681949194A984261
:102C800009D0884207D0904205D0174DA84202D003
:102C9000164DA84203D1456C45F4004545642068B3
:102CA00098420CD0B0F1804F09D0114B984206D019
:102CB000104B984203D0884201D0904207D18168DE
:102CC0000D4A1140062906D0B1F5803F03D00168B6
:102CD00041F001010160002030BD0000002C0140E6
:102CE00000340140004001400044014000480140E0
:102CF00000040040000800400700010030B5044611
:102D00000D460068002201F0A9FC224B41F211118E
:102D100020688A0098420BD01F4B984208D01F4B66
:102D2000984205D01E4B984202D01E4B984209D1C2
:102D3000036A0B4206D1036A134203D1436C23F4A6
:102D4000004343642068036A0B4206D1016A1142C2
:102D500003D1016821F00101016001205DB1042D62
:102D60000CD0082D0DD00C2D0ED0102D0FD084F8C6
:102D70004300002030BD84F83E00FAE784F83F00AD
:102D8000F7E784F84000F4E784F84100F1E784F8BD
:102D90004200EEE7002C01400034014000400140B9
:102DA000004401400048014090F88410012918D0E7
:102DB000012180F884102421C0F8881001680A6875
:102DC0000B6823F001030B6022F0005100224266E1
:102DD000036819602021C0F8881080F8842010460C
:102DE0007047022070477047704770B5044690F8EE
:102DF000840001281DD0012084F884002420C4F818
:102E0000880020680568026822F0010202602068DC
:102E1000826822F060620A438260204601F0FAFD77
:102E2000206805602020C4F88800002084F8840011
:102E300070BD022070BD70B5044690F88400012872
:102E40001DD0012084F884002420C4F88800206864
:102E50000568026822F0010202602068826822F0A0
:102E600060420A438260204601F0D4FD206805607C
:102E70002020C4F88800002084F8840070BD02205F
:102E800070BD7047704770472DE9F04103680446F4
:102E9000D86919689A6840F60F0528424FF0000576
:102EA0004FF002060AD187067ED501F0200702F016
:102EB000805C57EA0C0777D0616F42E1B64FDFF8CC
:102EC000DCC2174001EA0C0C57EA0C0C6CD05FEA2C
:102ED000C07C0CD05FEAC15C09D54FF0010CC3F88F
:102EE00020C0D4F8903043F00103C4F89030830739
:102EF00009D5D30707D023681E62D4F8903043F079
:102F00000403C4F8903043070AD5D30708D02668D5
:102F100004233362D4F8903043F00203C4F89030B5
:102F200003070CD501F020033B4308D02668082393
:102F30003362D4F8903043F00803C4F890300305AE
:102F40000BD54B0109D526684FF400633362D4F8E2
:102F5000903043F02003C4F89030D4F89030002B28
:102F60003DD0800609D501F0200002F080510843D1
:102F700003D0616F09B120468847D4F890002168DA
:102F80008968490602D410F0280F2AD0204601F0A3
:102F900025FE2068806840061ED52068083050E86D
:102FA000001F21F0400100E021E040E80012002A6B
:102FB000F3D1D4F8800078B179498163D4F88000E6
:102FC000FEF762FC00280AD0D4F88000816B00E094
:102FD0002046BDE8F04108472046FFF754FFBDE812
:102FE000F0812046FFF74FFFC4F89050F7E7D4F880
:102FF0006CC02027BCF1010F7ED15FEAC06C7BD58D
:103000005FEAC16C78D5102018622068806840069D
:1030100051D5D4F880100A6850680004000C3ED0E6
:10302000B4F85C3083423AD9A4F85E0008680068BE
:1030300080062CD4216851E8000F20F4807041E80C
:103040000002002AF6D12068083050E8001F21F065
:10305000010140E80012002AF5D12068083050E84C
:10306000001F21F0400140E80012002AF5D1C4F809
:103070008C70E566216851E8000F20F0100041E8EF
:103080000002002AF6D1D4F88000FEF7C8FB2667BC
:10309000B4F85C00B4F85E10401A81B207E0B4F8EE
:1030A0005C1081429BD11068800698D52667204627
:1030B000FFF799FE93E7B4F85C00B4F85E10401A8D
:1030C00081B2B4F85E00002889D0002987D0226838
:1030D00052E8000F20F4907042E80003002BF6D174
:1030E0002D4BDB432068083050E8002F1A4040E8A1
:1030F000002CBCF1000F00E00EE0F3D1C4F88C709E
:10310000E5666567206850E8002F22F0100240E86D
:103110000023002BF6D1C9E7C60209D5560207D510
:103120004FF4801018622046BDE8F041FFF7AABEB8
:1031300003060AD501F0800302F40002134304D011
:10314000A16F00297FF444AF49E7420611D54A0632
:103150000FD52046016851E8002F22F0400241E8D7
:103160000023002BF6D1C0F88870856700F029F99C
:1031700035E7020206D54A0004D52046BDE8F041F5
:10318000FFF77FBEC00195D5002993DA2046BDE840
:10319000F041FFF729BE00000100001020010004EB
:1031A000CD4B000810B5040003D0D4F8880010B14E
:1031B00007E0012010BD002084F88400204600F0C4
:1031C00027F82420C4F888002068016821F0010154
:1031D0000160A06A10B1204601F03EFC204601F0DB
:1031E0008FFF0128E6D02068416821F490414160BA
:1031F0002068816821F02A0181602068016841F01F
:10320000010101602046BDE8104001F089BC0000CA
:1032100010B598B00446142111A8FDF76EFA4421A8
:103220006846FDF76AFA1B492068884230D10120C0
:103230000024CDE900046846FEF7A0FD08B1FEF7C2
:10324000ECFA1548016E41F480410166016E01F40B
:1032500080411691C16C41F00101C164C06C11A99B
:1032600000F0010016904FF4C06011900220CDE9EB
:1032700012040720CDE914404FF09040FEF752FBB6
:10328000002211462520FEF7E1FC2520FEF7D0FCA8
:1032900018B010BD003801400010024030B4D0F822
:1032A0008C30202B02D0022030BC7047A9B1A2B1D3
:1032B0000023C3660A4C0368A3420BD05B681B0261
:1032C00008D5046854E8003F43F0806344E80035C3
:1032D000002DF6D130BC02F04DB80120E4E700002B
:1032E000008000400849002048620848012100F1A0
:1032F000680301720179C2785A54491C0171012294
:10330000C11C0348FFF7CABF004001401000002065
:10331000A00100202DE9F8430446D0F88800984623
:1033200016460D46202802D00220BDE8F883A5B13C
:103330009EB10020C4F890002120C4F88800183401
:10334000FEF71EFCA6878146E68754F8100C20275E
:10335000183CB0F5805F02D003E00120E5E720696A
:1033600010B12E46002510E000260EE080212046F8
:1033700002F088F8C0B9DEB116F8010B2168886246
:10338000B4F85600401EA4F85600B4F856004B4658
:103390004FF00002CDF800800028E7D14FF0400147
:1033A000204602F06FF840B1C4F888700320BCE7F3
:1033B00035F8020BC0F30800E0E7C4F8887000207D
:1033C000B3E77047FEE7000000B585B014216846FA
:1033D000FDF793F94FF6FF70009000200321CDE92F
:1033E0000201019069460248FEF79CFA05B000BD53
:1033F0000008004800B585B014216846FDF77DF946
:103400004FF6FF70009001200190032003900020F0
:10341000029069460248FEF785FA05B000BD00003B
:10342000000800482DE9F0410A4E8046306800242B
:1034300085B22146204600F017F900F055F94FF407
:103440009637404600F024F9641CBC42F9D335603D
:10345000BDE8F0811408004870B586B014216846B4
:10346000FDF74BF91E48C16C41F00401C164C16C09
:1034700001F004010591C16C41F00101C164C16C0E
:1034800001F001010591C16C41F00201C164C06C01
:10349000032500F0020005904FF448700124002637
:1034A00003958DE8510069460E48FEF73BFA20026D
:1034B00003958DE851004FF0904469462046FEF791
:1034C00031FAFFF797FFA06940F48070A0610548CA
:1034D0001830016841F40871016006B070BD000049
:1034E0000010024000040048203AD2B2034B02EB25
:1034F000420203EB021200F023B80000AA5E0008AB
:103500002DE9F043DFF8348081460E46D8F80000FC
:10351000002587B240F23F1407E021464846FFF7F6
:10352000E3FF103C6D1CA4B2761C32780AB1142D56
:10353000F3D3C8F80070BDE8F08300001408004819
:103540002DE9F04791468A460026044600F08CF8A3
:10355000DFF84080012700BF00F0C6F85FF00005EB
:1035600039F8160007FA05F10842404601D14088B3
:1035700000E0008800F08CF86D1C102DF0D3641C66
:10358000E4B25146204600F06FF8761C182EE3D3C3
:10359000BDE8F087B400002070B50D4E306885B2EC
:1035A000FFF75AFF002000F017F80A4CA080A0880F
:1035B000A0F50241303907D000F079FE002000F07C
:1035C0000BF8A080356070BD00F0E8FDF6E7000064
:1035D00014080048B400002070B51D490A6842F480
:1035E00000720A600A6842F480720A60184C103C4B
:1035F000226842F020022260164A1060086840F0FB
:103600002000086000BF00BF00BF206840F020001D
:103610002060206840F480702060FFF7D5FE4FF0F6
:103620009041886A40F48070886200BF00BF00BF8C
:103630000848001F006885B2886940F4807088617E
:10364000FFF7D8FE206840F400702060284670BD67
:10365000280400481408004801B5BDF800000149DD
:10366000488008BDB400002010B50C46014620205B
:1036700000F068F82146BDE81040212000F062B853
:1036800001B5BDF800000149088008BDB400002064
:10369000134A116841F400711160114910390B6827
:1036A00043F480730B600B6843F020030B600D4BF9
:1036B0001860106840F02000106000BF00BF00BF1D
:1036C000086840F020000860086840F480700860D6
:1036D00000BF00BF00BF086840F40070086070477A
:1036E00028040048140800481449086840F4007091
:1036F0000860086840F4807008601048103802685C
:1037000042F0200202600E4B22221A600A6842F048
:1037100020020A6000BF00BF00BF016841F0200125
:103720000160016841F48071016000BF00BF00BF0B
:10373000016841F4007101607047000028040048EE
:1037400014080048184B10B51A6842F400721A6049
:103750001A6842F480721A60134A103A146844F0EE
:1037600020041460114C2060186840F0200018609C
:1037700000BF00BF00BF106840F02000106010685C
:1037800040F4807010602160186840F020001860DC
:1037900000BF00BF00BF106840F02000106010683C
:1037A00040F48070106010BD2804004814080048E0
:1037B00010B5054C2078002805D001F0B5FE00209A
:1037C00020700120607010BD1A00002010B5124C4E
:1037D000607828B101F00EFF012020700020607099
:1037E0000D4C0EA10A3C134894ED0E0B53EC102B1C
:1037F000FCF7F4FD0F494820FFF782FE94ED100B13
:103800000DA153EC102B0B48FCF7E8FDBDE8104070
:1038100008497820FFF774BE1A00002020202043BA
:103820004E42523A252E3266202020202020202091
:103830000000000034020020202020564E42523A60
:10384000252E32662020202020202020000000008D
:1038500070B50B4D012204212846FEF78CF9002497
:10386000601CC0B2002100F00DF8641C082CF7DBCE
:103870002846BDE8704000220421FEF77CB9000014
:10388000000C004870B50E4E0D460446012204217E
:103890003046FEF770F94FF48070641EA040094B6B
:1038A00081B20DB1002200E001221846FEF763F953
:1038B0003046BDE8704000220421FEF75CB90000EC
:1038C000000C004800080048F0B587B01421684695
:1038D000FCF713FF2D48C16C41F00401C164C16CB9
:1038E00001F004010591C16C41F02001C164C16C7B
:1038F00001F020010591C16C41F00101C164C16C6E
:1039000001F001010591C16C41F00201C164C16C7B
:1039100001F002010591C16C41F00801C164C06C65
:103920001B4E00F008004FF47F4405900122214611
:103930003046FEF720F9174F002204213846FEF7E3
:103940001AF90125CDE90045002402946946304664
:103950000394FDF7E7FFCDE9005469464FF090402E
:103960000295FDF7DFFF07208DE8310069460A4820
:10397000FDF7D8FF04200090CDE901546946384690
:103980000394FDF7CFFF07B0F0BD00000010024028
:1039900000080048000C00480004004810B588B03A
:1039A000002418480094019402940394049405940C
:1039B00013490694016041F63F71C0E901144FF6C6
:1039C000FF71C0E9031444618461FEF717FF08B179
:1039D000FDF723FF4FF48050009069460948FEF739
:1039E000A3FF08B1FDF719FF049404A90548069444
:1039F000FEF7B6FE002801D0FDF70FFF08B010BD9E
:103A000000400140BC0000200C4810B50A4901608C
:103A100041F63F71416000214FF6FF72C0E902128A
:103A2000016141618161FEF7E9FE002803D0BDE834
:103A30001040FDF7F2BE10BD004401400801002017
:103A400010B594B01C210DA8FCF757FE3421684630
:103A5000FCF753FE1F481E490024016040F28F11FD
:103A6000C0E901146321C0E9031444618461FEF7D5
:103A7000C5FE08B1FDF7D1FE1648FFF78FF808B173
:103A8000FDF7CBFE6020CDE90D040F941094119446
:103A9000129400220DA90F481394FEF7EDFF08B110
:103AA000FDF7BBFE00944FF40050CDE904400194B3
:103AB000029403940694694606480C94FEF702FEAD
:103AC00008B1FDF7AAFE0348FEF7AEFF14B010BD23
:103AD0000048014054010020184810B51649016003
:103AE0004FF416514160002181600C22C160C0E991
:103AF00004128161C161016241628162FFF752FB80
:103B000008B1FDF78AFE00210C48FFF794F908B1CF
:103B1000FDF783FE00210948FFF767F908B1FDF7BB
:103B20007CFE0648FFF740F9002803D0BDE81040AE
:103B3000FDF773BE10BD000000380140A001002059
:103B4000FEE7FEE72DE9F047554C86B0A079002846
:103B500068D004F148000FC8851A71EB03057CD2C8
:103B6000E089A189228A401A40F26D114843618A96
:103B7000891AC1EB011100EB4100E18AA28A891A7E
:103B80000844618B00EB400001EBC000218B401A20
:103B9000401CC117C4E9180142A104F12C00FCF734
:103BA000D3FD4FF000094FF0010804F131074FF445
:103BB0007A7AD0B33DA1781FFCF7C6FD002831D139
:103BC000D4E9180105460E4601F01AFF94ED0E1BCC
:103BD00053EC112B01F05AFFC4E916012278521E52
:103BE0002270A278521CA27084F80980CDE9025696
:103BF000CDE90401F978B878CDE900017B783A780D
:103C00002CA13348FCF7EAFB3148FCF74FFD82B2A8
:103C100053462F492F48FFF77DFB3220FDF770FEFA
:103C200084F8069006B0BDE8F087FFE7D4E91801F4
:103C300005460E4601F0E4FE94ED101B53EC112BEB
:103C400001F024FFC4E916016278521E6270A27866
:103C5000521CA27084F8098000E00BE0CDE9025606
:103C6000CDE90401F978B878CDE900017B783A789C
:103C700019A1C6E7CDE900011EA11548FCF7AEFB6E
:103C80001348FCF713FD82B2322311491148FFF7A4
:103C900041FB06B03220BDE8F047FDF731BE000021
:103CA00010000020564E425200000000434E425287
:103CB00000000000434E42523A25632563256325E8
:103CC000633A256C6C753A252E32660D0A000000A9
:103CD00084020020A0010020564E42523A2563255E
:103CE00063256325633A256C6C753A252E32660D83
:103CF0000A0000005061726B696E6754696D65451A
:103D000072726F7221256C6C7520256C6C750D0AB2
:103D100000000000704700002DE9F047E44D4FF02F
:103D2000010A05F16806E87905F1860740B9002027
:103D3000202131543954401C1E28FADB85F807A095
:103D4000DC480124406A0F2879D3287A012876D1EB
:103D500068794FF0000910B1012871D086E1D64989
:103D60000020325C0A54401C0528FADB884681F8A2
:103D70000590D2A1D048FCF7E7FC58B1D1A1CE48BC
:103D8000FCF7E2FC30B1002432230E22CFA1D3484D
:103D9000FFF7C0FA0620311811F8012C08F80020AE
:103DA000401C0A28F7DD0B20311811F8011C3039AE
:103DB000092906D83A18401C02F80B1C1628F3DD16
:103DC00000E00024707D202813D1BB48C4A13C3002
:103DD000FCF704FBB8483C30FCF768FCB64982B2FB
:103DE00032233C31BD48FFF795FA3220FDF788FDBC
:103DF0000024B07D202813D0AF48BEA13C30FCF792
:103E0000EDFAAD483C30FCF751FCAB4982B23223AD
:103E10003C31B248FFF77EFA3220FDF771FD0024F5
:103E200098F804103A2903D198F80A003A2808D0E3
:103E300032230B22B4A1A948FFF76CFA47E030E126
:103E400049E0ECB3002C89D0994985F805A02C31C4
:103E5000994800F05FFB96499748313100F028FB04
:103E60009348863000F041FBC5E912010020AA8981
:103E7000395C02EB820201EB4201A98139182B8ADD
:103E80008A7803EB830302EB43022A82AB8A0A7926
:103E900003EB830302EB4302AA822A8B897902EBAC
:103EA000820201EB4201401C29830228DFDB002053
:103EB0003918AA8B097A02EB820201EB420100E079
:103EC00005E0401CA9830428F2DB92A1BFE0322365
:103ED000102295A1C7E0784900201E31325C0A54B7
:103EE000401C0528FADB7448884681F8059073A1C8
:103EF0001E30FCF729FC60B16F4872A11E30FCF740
:103F000023FC30B132230E228BA17448FFF702FA52
:103F100000240620311811F8011C08F80010401C7C
:103F20000A28F7DD0B20311811F8011C3039092956
:103F300006D83A18401C02F80B1C1628F3DD00E0E6
:103F40000024707D202813D15B487FA13C30FCF712
:103F500045FA59483C30FCF7A9FB574982B2322355
:103F60003C315E48FFF7D6F93220FDF7C9FC00244A
:103F7000B07D202813D0504878A13C30FCF72EFAB1
:103F80004D483C30FCF792FB4B4982B232233C3126
:103F90005248FFF7BFF93220FDF7B2FC002498F831
:103FA00004003A2803D198F80A003A2806D03223B0
:103FB0000B226FA14948FFF7ADF974E0F4B3F4B3F5
:103FC000022068713A493C482C311E3000F0A2FAB8
:103FD0003749394831311E3000F06AFA34488630AA
:103FE00000F06EFAC5E914010020EA89395C02EBA1
:103FF000820201EB4201E98139186B8A8A7803EB6E
:10400000830302EB43026A82EB8A0A7903EB8303A0
:1040100002EB4302EA826A8B897902EB820201EBAE
:104020004201401C69830228DFDB00203918EA8B3B
:10403000097A02EB820201EB420101E033E015E074
:10404000401CE9830428F1DB85F806A04BA11A483F
:104050003C30FCF7C3F918483C30FCF727FB164905
:10406000322382B23C311D48FFF754F910484C46C8
:1040700085F8089020221E216830FCF736FB2022AC
:104080001E210D48FCF731FB0B4820221E211E305B
:10409000FCF72BFB064820221E218630FCF725FB6F
:1040A0002C71BDE8F0873223102238A1DBE7000035
:1040B000100000200040014048020020434E4252C0
:1040C0003A000000564E42523A000000434E42521F
:1040D000314552524F52210D0A000000A00100202C
:1040E00054696D6553686F72744572726F72310DE9
:1040F0000A00000054696D654C6F6E674572726FFF
:1041000072310D0A00000000313A4552524F5221DF
:104110000D0A00005061726B696E675375636365C9
:104120007373210D0A000000466F726D6174314592
:1041300072726F72210D0A00434E42523245525242
:104140004F52210D0A00000054696D6553686F726B
:10415000744572726F72320D0A00000054696D6509
:104160004C6F6E674572726F72320D0A000000006C
:10417000323A4552524F52210D0A00004F75745386
:10418000756363657373210D0A000000466F726DDD
:104190006174324572726F720D0A000030B50121F0
:1041A0000020FFF7CFFA4FF47A70FDF728FB0021CB
:1041B0000120FFF7C7FA41F290711020FFF7C2FA11
:1041C0004FF41C516020FFF7BDFA01216120FFF779
:1041D000B9FA02214620FFF7B5FA48F21001132080
:1041E000FFF7B0FA48F2FE011220FFF7ABFA4FF4E6
:1041F000A0610220FFF7A6FA41F230010320FFF789
:10420000A1FA40F2033421463020FFF79BFA214601
:104210003120FFF797FA21463220FFF793FAE51E87
:1042200029463320FFF78EFA03213420FFF78AFA5C
:1042300021463520FFF786FA14213620FFF782FA4F
:1042400021463720FFF77EFA21463820FFF77AFA19
:1042500021463920FFF776FA29463A20FFF772FA0D
:1042600003213B20FFF76EFA21463C20FFF76AFA54
:104270004FF4A0513D20FFF765FA4FF400719220F2
:10428000FFF760FA21469320FFF75CFA40F60D0134
:104290009020FFF757FA41F218010320FFF752FA76
:1042A000BDE8304040F273110720FFF74BBA10B55C
:1042B00043F20801E320FFF745FA1221E720FFF758
:1042C00041FA41F23121EF20FFF73CFA00210120B1
:1042D000FFF738FA4FF4E0610220FFF733FA41F2BA
:1042E00030010320FFF72EFA00210420FFF72AFAFD
:1042F00040F207210820FFF725FA00210920FFF7E7
:1043000021FA00210A20FFF71DFA00210C20FFF7F7
:1043100019FA00210D20FFF715FA00210F20FFF7F1
:1043200011FA00211020FFF70DFA07211120FFF7E5
:1043300009FA00211220FFF705FA00211320FFF7E8
:1043400001FAC820FDF7DCFA41F290611020FFF776
:10435000F9F940F227211120FFF7F4F93220FDF797
:10436000CFFA1D211220FFF7EDF93220FDF7C8FA30
:104370004FF400611320FFF7E5F914212920FFF71E
:10438000E1F90B212B20FFF7DDF93220FDF7B8FA18
:1043900000212020FFF7D6F900212120FFF7D2F9D4
:1043A00007213020FFF7CEF940F207713120FFF7E7
:1043B000C9F906213220FFF7C5F940F20471352012
:1043C000FFF7C0F941F604713620FFF7BBF904216D
:1043D0003720FFF7B7F900213820FFF7B3F940F293
:1043E00006713920FFF7AEF940F201713C20FFF76A
:1043F000A9F90F213D20FFF7A5F900215020FFF773
:10440000A1F9EF215120FFF79DF900215220FFF77C
:1044100099F940F23F115320FFF794F94FF41C51E2
:104420006020FFF78FF901216120FFF78BF9002150
:104430006A20FFF787F900218020FFF783F9002128
:104440008120FFF77FF900218220FFF77BF900210F
:104450008320FFF777F900218420FFF773F900210B
:104460008520FFF76FF910219020FFF76BF90021ED
:104470009220FFF767F903219320FFF763F94FF4C8
:1044800088719520FFF75EF900219720FFF75AF910
:1044900000219820FFF756F941F218010320FFF799
:1044A00051F9BDE8104040F273110720FFF74AB9F7
:1044B000002283189B798B54521C042AF9DB704725
:1044C000F0B5034600200146024604460A27A0FB39
:1044D000075C01FB07C1002600FB0611985C281849
:1044E0006141521C0C2AF1DBF0BDF0B503460020FF
:1044F0000146024604460A27A0FB075C01FB07C1F0
:10450000002600FB0611985C28186141521C0C2AF9
:10451000F1DBF0BD0022835C8B54521C042AFADBD1
:1045200070477047FDF732BB10B594B0382168462C
:10453000FCF7E3F814210EA8FCF7DFF84FF4007045
:10454000FDF7B6FB01200090000401900220032437
:10455000CDE907041421CDE90A100C900D900994BF
:104560006846FDF799FE08B172B6FEE70F20CDE967
:104570000E04002010901190129002210EA8FDF759
:1045800041FD002801D072B6FEE714B010BD000056
:104590000248016841F470010160704788ED00E055
:1045A0002DE9F0430268264B264D274E274C4FF04D
:1045B0008049984207D0484505D0A84203D0B04270
:1045C00001D0A04203D122F070074A683A43204F3D
:1045D000DFF880C0DFF8808098420DD048450BD0CE
:1045E000A84209D0B04207D0A04205D0B84203D0BB
:1045F000604501D0404503D122F44075CA682A4382
:104600004D6922F080022A4302608A68C2620A6809
:104610008262984207D0A04205D0B84203D06045DC
:1046200001D0404501D1096901630121416101695E
:10463000C90703D0016921F001010161BDE8F083E0
:10464000002C0140000400400008004000340140FC
:1046500000400140004401400048014010B501F015
:104660001F030121046A99408C430462016A9A4045
:104670001143016210BD10B5846842EA032224F49C
:104680007F440A432243826010BD00008268034BCE
:104690001A400A4342F00701816070478FFFCFFF45
:1046A0002DE9F043056A026A22F0010202624368C2
:1046B00082691C4C25F0020522400C6822F003029E
:1046C00014438A68194E2A43174D194FDFF864C006
:1046D000DFF86490A84207D0B04205D0B84203D0BA
:1046E000604501D0484506D122F00808CA6842EA70
:1046F000080222F00402A84207D0B04205D0B84216
:1047000003D0604501D0484505D14D6923F440737D
:104710001D438B692B434360846149684163026296
:10472000BDE8F0838FFFFEFF002C01400034014004
:10473000004001400044014000480140F0B5056AD6
:10474000026A22F01002026242688369194C1B4E11
:1047500023400C6823F4407343EA042425F020032B
:104760008D6843EA0513144DA84201D0B04206D12A
:10477000CF6823F0800343EA071323F04003A842E5
:104780000AD0B04208D00E4DA84205D00D4DA84227
:1047900002D00D4DA84207D14D6922F4406242EA91
:1047A00085028D6942EA85024260846149688163BD
:1047B0000362F0BDFF8FFFFE002C0140003401407A
:1047C000004001400044014000480140F0B5056A46
:1047D000026A22F4807202624368C269194C1B4E5D
:1047E00022400C6822F00302144325F400728D6805
:1047F00042EA0522144DA84201D0B04206D1CF684A
:1048000022F4006242EA072222F48062A8420AD01F
:10481000B04208D00E4DA84205D00E4DA84202D09D
:104820000D4DA84207D14D6923F4405343EA0513C7
:104830008D6943EA05134360C4614968C16302623C
:10484000F0BD00008FFFFEFF002C0140003401404E
:10485000004001400044014000480140F0B5056AB5
:10486000026A22F4805202624268C369194C1B4EEC
:1048700023400C6823F4407343EA042425F40053D6
:104880008D6843EA0533144DA84201D0B04206D1E9
:10489000CF6823F4004343EA073323F48043A8425C
:1048A0000AD0B04208D00E4DA84205D00D4DA84206
:1048B00002D00D4DA84207D14D6922F4404242EA90
:1048C00085128D6942EA85124260C46149680164BB
:1048D0000362F0BDFF8FFFFE002C01400034014059
:1048E00000400140004401400048014030B5056AE5
:1048F000026A22F4803202624268036D114C234046
:104900000C681C4325F400330D8943EA05430E4D22
:10491000A8420BD00D4DA84208D00D4DA84205D09D
:104920000C4DA84202D00C4DA84204D14D6922F48E
:10493000803242EA0522426004654968816403626C
:1049400030BD00008FFFFEFF002C0140003401400D
:1049500000400140004401400048014030B5046A75
:10496000026A22F4801202624268036D114D24F43F
:1049700000142B400D6843EA05230D8944EA0554D1
:104980000D4DA8420BD00D4DA84208D00C4DA842A9
:1049900005D00C4DA84202D00B4DA84204D14D6960
:1049A00022F4802242EA8522426003654968C1649C
:1049B000046230BDFF8FFFFE002C01400034014037
:1049C00000400140004401400048014010B5036A26
:1049D000046A24F001040462846924F0F00444EAC7
:1049E000021423F00A020A438461026210BD10B56A
:1049F000036A046A24F010040462846923F0A003AB
:104A000024F4704444EA023243EA011182610162F3
:104A100010BD000030B5416EB9B10268916892686E
:104A2000C1F342610B4B520F9C5CE50003F108049B
:104A3000A25CB5FBF2F2A0F86A205A5C615CD2007D
:104A4000B2FBF1F1A0F8681030BD0121A0F86A10A6
:104A5000F8E70000825E000890F82810090706D5E4
:104A600001684A68836B22F400421A434A6090F856
:104A70002810C90706D001684A68C36A22F40032C8
:104A80001A434A6090F82810890706D501684A68D9
:104A9000036B22F480321A434A6090F828104907C9
:104AA00006D501684A68436B22F480221A434A60A3
:104AB00090F82810C90606D501688A68C36B22F4ED
:104AC00080521A438A6090F82810890606D501683A
:104AD0008A68036C22F400521A438A6090F8281006
:104AE000490611D501684A68436C22F480121A43C2
:104AF0004A60416CB1F5801F06D101684A68836C39
:104B000022F4C0021A434A6090F82810090606D51C
:104B100001684A68C06C22F4002202434A60704770
:104B20002DE9F84300260446C0F89060FDF728F808
:104B30008046206800684FF0200500076FF07E4730
:104B400013D54346002229042046009700F09AFC22
:104B500058B1216851E8000F20F0800041E80002C0
:104B6000002AF6D1C4F8885021E020680068400788
:104B700022D5434600224FF480012046009700F0E2
:104B800081FCC8B1216851E8000F20F4907041E821
:104B90000002002AF6D12068083050E8001F21F0FA
:104BA000010140E80012002AF5D1C4F88C5084F8C5
:104BB00084600320BDE8F883C4F88850C4F88C50A2
:104BC00044F86C6F666026760020F3E710B5806AC3
:104BD0000021A0F85E10FEF756F910BD10B502686E
:104BE00052E8001F21F4907142E80013002BF6D127
:104BF0000E4B0268083252E8001F194042E80014C8
:104C0000002CF6D1C16E012908D1016851E8002FAE
:104C100022F0100241E80023002BF6D12021C0F839
:104C20008C100021C166416710BD0000FEFFFFEF40
:104C300010B5B0F86020D0F88C300168222B04D079
:104C4000886940F00800886110BD496A836D114091
:104C50001980816D891C8165B0F85E10491EA0F82D
:104C60005E10B0F85E100029EED1026852E8001F15
:104C700021F4907142E80013002BF6D1016808314D
:104C800051E8002F22F0010241E80023002BF5D16A
:104C90002021C0F88C10002141670167154B026884
:104CA0009A420BD05268120208D5036853E8002FCD
:104CB00022F0806243E80024002CF6D1C26E012A63
:104CC00002D0FEF70FFB10BDC166026852E8001F5C
:104CD00021F0100142E80013002BF6D10168CA69E7
:104CE000D243D20601D410220A62B0F85C10FEF75B
:104CF0007AF810BD008000402DE9F0470446B0F876
:104D000060600068C569D0F800A0D0F80890D4F8B9
:104D10008C10222905D0816941F008018161BDE82C
:104D2000F087B4F868704FF0000844E02068406AEB
:104D3000A16D30400880A06D801CA065B4F85E00B5
:104D4000401EA4F85E002068C569690730D0E907F5
:104D50000AD05FEACA5107D501210162D4F8900058
:104D600040F00100C4F89000A8070BD55FEAC970B5
:104D700008D0216802200862D4F8900040F00400B6
:104D8000C4F8900068070BD55FEAC97008D02168A5
:104D900004200862D4F8900040F00200C4F89000AB
:104DA000D4F8900020B12046FEF76DF8C4F890804A
:104DB000B4F85E0000B30FB1A806B7D4B4F85E0033
:104DC0000028ACD0B4F868108142A8D92068083017
:104DD00050E8001F21F0805140E80012002AF5D170
:104DE0002A486067206850E8001F41F0200140E831
:104DF0000012002AF6D192E7216851E8000F20F452
:104E0000807041E80002002AF6D1214A206808306B
:104E100050E8001F114040E80013002BF6D120207D
:104E2000C4F88C00C4F874804046C4F87080194AF5
:104E3000216891420BD04968090208D5226852E8DE
:104E4000001F21F0806142E80013002BF6D1E16ED3
:104E5000012903D02046FEF745FAAFE7E066216856
:104E600051E8000F20F0100041E80002002AF6D1BE
:104E70002068C169C943C90601D410210162B4F890
:104E80005C102046FDF7AFFF98E70000314C0008AA
:104E9000FEFFFFEF0080004010B5B0F86020D0F8B2
:104EA0008C300168222B04D0886940F008008861AA
:104EB00010BD496A1140826D1170816D491C816578
:104EC000B0F85E10491EA0F85E10B0F85E10002920
:104ED000EED1016851E8002F22F4907241E80023DE
:104EE000002BF6D10168083151E8002F22F00102B1
:104EF00041E80023002BF5D12021C0F88C100021BF
:104F000041670167154B02689A420BD05268120242
:104F100008D5036853E8002F22F0806243E800249C
:104F2000002CF6D1C26E012A02D0FEF7DBF910BDCB
:104F3000C166026852E8001F21F0100142E8001328
:104F4000002BF6D10168CA69D243D20601D41022DF
:104F50000A62B0F85C10FDF746FF10BD008000400B
:104F60002DE9F0470446B0F860600068C569D0F8E4
:104F700000A0D0F80890D4F88C10222905D08169BF
:104F800041F008018161BDE8F087B4F868704FF026
:104F9000000844E02068406AA16D30400870A06DB0
:104FA000401CA065B4F85E00401EA4F85E002068B6
:104FB000C569690730D0E9070AD05FEACA5107D549
:104FC00001210162D4F8900040F00100C4F8900083
:104FD000A8070BD55FEAC97008D0216802200862D3
:104FE000D4F8900040F00400C4F8900068070BD596
:104FF0005FEAC97008D0216804200862D4F89000E4
:1050000040F00200C4F89000D4F8900020B120468F
:10501000FDF739FFC4F89080B4F85E0000B30FB11B
:10502000A806B7D4B4F85E000028ACD0B4F8681075
:105030008142A8D92068083050E8001F21F0805133
:1050400040E80012002AF5D12A486067216851E83B
:10505000000F40F0200041E80002002AF6D192E75C
:10506000216851E8000F20F4807041E80002002A16
:10507000F6D1214A2068083050E8001F114040E86E
:105080000013002BF6D12020C4F88C00C4F87480E3
:105090004046C4F87080194A216891420BD0496893
:1050A000090208D5226852E8001F21F0806142E819
:1050B0000013002BF6D1E16E012903D02046FEF744
:1050C00011F9AFE7E066206850E8001F21F01001F9
:1050D00040E80012002AF6D12068C169C943C90618
:1050E00001D410210162B4F85C102046FDF77BFE6C
:1050F00098E70000994E0008FEFFFFEF0080004097
:105100002DE9F0410446016880682269E369104393
:10511000626900251A431043DFF82CC20A688B4BE2
:105120001A4002430A6020684168E26821F4405155
:10513000114341602168A069614501D0226A104392
:105140008A68834B1A4002438A602068C16A626A97
:1051500021F00F011143C1627E4923687E488B42D2
:105160000DD1D0F8880010F0030006D0012855D0EA
:10517000022842D003283FD152E001203DE0774988
:105180008B420BD1D0F8880010F00C0035D00428E9
:1051900033D0082840D00C282ED141E070498B42F2
:1051A0000BD1D0F8880010F0300026D0102835D070
:1051B000202831D030281FD132E06A498B420BD1F0
:1051C000D0F8880010F0C00017D0402826D08028E2
:1051D00022D0C02810D123E063450DD1D0F888003B
:1051E00010F4406009D0B0F5806F17D0B0F5006FB3
:1051F00012D0B0F5406F13D010205B495B4F0026F2
:105200004FF4004263453BD160B1022813D004281B
:105210000BD0082872D10DE00220EEE70420ECE765
:105220000820EAE7FCF7DCFF01E0FCF7FDFF0100E6
:1052300001D17CE01146606A37F810206768B1FB45
:10524000F2F007EB4703834270D8B0EB073F6DD80D
:10525000002308461946FBF749F8090241EA1061A4
:1052600002027808101871413A460023FBF73EF815
:105270003F4AA0F54071914258D82168C86056E075
:10528000E3694FF6EF7893422CD109284ED2DFE83C
:1052900000F00508114D0D4D4D4D1000FCF7A0FF1D
:1052A00001E0FCF7AFFF010004D140E0FCF7BCFFD8
:1052B000F9E71146606A37F81000B1FBF0F04100E1
:1052C000606801EB5001B1FBF0F0A0F11001414525
:1052D0002CD84FF6F0710140C0F342000143206822
:1052E000C16024E0092821D2DFE800F0050912207E
:1052F0000E2020201100FCF773FF02E016E0FCF7FF
:1053000081FF010004D112E0FCF78EFFF9E711469E
:10531000606A37F81000B1FBF0F1606801EB5001F2
:10532000B1FBF0F0A0F1100141450AD9012501209F
:10533000A4F86A0024F8680F2846E6602661BDE8F4
:10534000F08180B299E7000000800040F369FFCF50
:10535000FFF4FF11003801400010024000440040FB
:1053600000480040004C00400024F4006A5E000841
:10537000FFFC0F0070B58165A0F85C20A0F85E20EE
:105380000023436781684FF48056FF24B14204D163
:105390000169F9B940F2FF1122E07F25C1B1B1F1F5
:1053A000805F1AD0A0F86030C0F890302221C0F899
:1053B0008C100168083151E8003F43F0010341E8D7
:1053C0000034002CF5D1416EB1F1005F0ED031E018
:1053D000016941B9A0F86040E6E7016919B13F21D0
:1053E000A0F86010E0E7A0F86050DDE7B0F86810C2
:1053F00091421FD88168B14201D10169B9B11D49FB
:105400004167016941B1026852E8001F41F48071AF
:1054100042E80013002BF6D10168083151E8002F53
:1054200042F0805241E80023002BF5D120E01249E0
:105430004167F1E78168B14201D1016969B10F4962
:105440004167016959B1026852E8001F41F4907147
:1054500042E80013002BF6D10AE0094941670268CF
:1054600052E8001F41F0200142E80013002BF6D162
:10547000002070BD614F0008F94C0008994E0008EB
:10548000314C00082DE9F047994617460D46044671
:105490004FF00008089E33E0701C31D0FCF770FB21
:1054A000A0EB0900B04218D8BEB1206801684907D6
:1054B00026D5802D24D0402D22D0C169C9430907AB
:1054C0000DD4082505622046FFF788FBC4F89050EC
:1054D00084F884800120BDE8F0870320FBE7C069E1
:1054E000C04300050CD421684FF4006008622046D8
:1054F000FFF774FB2020C4F8900084F88480ECE768
:105500002068C06935EA000004D00020B842C3D04A
:105510000020E0E70120F9E70148FDF7B5BC0000F5
:10552000A0010020FEE7000010B50020FDF77AFF83
:105530004FF6FF70FEF7A4F80020FEF78DF813A1D8
:105540001848FAF74BFF17491820FDF7D9FF164CFA
:1055500016A114482278FAF741FF12494820FDF7B6
:10556000CFFF627817A10F48FAF738FF0D4978206E
:10557000FDF7C6FFA27819A10A48FAF72FFFBDE888
:1055800010400849A820FDF7BBBF000020202020C4
:105590002020204461746120202020202020202011
:1055A00000000000340200201000002020202043D2
:1055B0004E42523A25642020202020202020202006
:1055C00020000000202020564E42523A2564202020
:1055D0002020202020202020200000002020204902
:1055E000444C453A256420202020202020202020E3
:1055F0002000000010B50020FDF714FF4FF6FF70EB
:10560000FEF73EF80020FEF727F80DA11248FAF742
:10561000E5FE11491820FDF773FF10A10E48FAF7B7
:10562000DDFE0D494820FDF76BFF12A10A48FAF78D
:10563000D5FEBDE8104008497820FDF761BF0000A5
:105640002020202020202050617261202020202056
:1056500020202020000000003402002020202043D1
:105660004E42523A2020202020202020202020209E
:1056700000000000202020564E42523A20202020D8
:1056800020202020202020200000000003B40198CA
:105690004100009850EAC12018BF04204A0D18BFED
:1056A00040F0010040F2FF72B2EB515F08BF40F0E2
:1056B0000200012808BF052002B070470907090E43
:1056C000002804DB00F1E02080F80014704700F0AF
:1056D0000F0000F1E02080F8141D704730380A28D0
:1056E00001D2012070470020704700002DED028B91
:1056F000FCF754FAFEF718FFFEF7E6F8FEF74EF94E
:10570000FEF79EF9FEF7E8F9FEF77EF90022802108
:105710004FF09040FCF72FFA4E48FDF7CFF84E4877
:105720001421016000214D48FDF76AFA01224C491D
:105730004C48FDF7B3FDFDF72FFF00242546A24698
:10574000FEF786F8DFF82081DFF820919FED488B87
:10575000DFF824B1494E00BFFBF7F4FF074698F885
:10576000000008B9FEF7D8FA99F8000008B1012145
:1057700000E000210120FEF785F8FEF7E3F9012F94
:1057800006D0022F0CD0032F20D0042F49D135E0B2
:1057900025B10025641C04F0010442E00125F9E76D
:1057A0005DB39BED000B53EC182B5F4651EC100BD7
:1057B00000F07EF8C7E90001314F53EC182B97ED4C
:1057C000000B51EC100B00F073F814E0ADB19BED41
:1057D000000B53EC182B5F4651EC100B00F054FA01
:1057E000C7E90001264F53EC182B97ED000B51EC45
:1057F000100B00F049FAC7E9000112E0BAF1000FFE
:1058000013D04FF0000A51461448FDF777FA0022F2
:1058100080214FF09040FCF7AEF900210220FEF706
:1058200031F854B1012C0DD10AE04FF0010A0021EA
:105830000A48FDF7E5F90121F0E7FDF7B9FF01E0BE
:10584000FDF7C4FF3078012886D1FFF76DFE0020F8
:10585000307081E7BC000020344801405401002032
:1058600013000020A00100201600002012000020DC
:10587000000000000000E03F480000201900002068
:105880005000002010B500290AD00878002807D061
:1058900005487844FAF758FF002801D0002010BDD1
:1058A0000248784410BD00009E18000096180000C1
:1058B00010B591EA030F48BF83F0004300F1EC817B
:1058C000841A71EB030C05D2121943EB0C03001B75
:1058D00061EB0C01DFF824E14FEA1154A4EB135CF7
:1058E0001EEA430F18BF9EEA445F73D023EA0E03FB
:1058F000DCF1200E21EA045143F4801332D322FA62
:105900000CFE10EB0E0023FA0CFE41EB0E01CCF165
:10591000200E03FA0EFE10EB0E0051F10001B1F55E
:10592000801FCCF1200E32D201EB045112FA0EF29C
:10593000BDE8104058BF7047401C38BF5FEA4202C4
:1059400018BF7047002814BF20F0010041F100018A
:105950004FEA410313F5001F38BF7047A1F1C04162
:1059600000F08CB9012A43EB0302ACF1200CDCF10E
:105970001F0E32BF4FF0000E23FA0CF310EB0300A2
:1059800041EB0451B4EB115FD0D0A1EB045101F510
:10599000801149085FEA300001EB04510ED350F149
:1059A000000038BF12FA0EFE08D1BDE81040C9E76A
:1059B000401C38BF5FEA4202CAD1C3E7BDE81040CD
:1059C0004FEA410313F5001F38BF7047A1F1C041F2
:1059D00000F054B99EEA445F08D011EA5E0FBDE8BA
:1059E000104004BF01F0004100207047BDE81040A6
:1059F00070B500F0F5F800BF64FBBE3E0000E0FFAC
:105A0000B1FA81F30B3B20D3994010D1B0FA80F367
:105A100010FA03F108BF7047C3F11D0303F580635B
:105A20004FEAD1224FEA415002EB03517047C3F1D4
:105A3000200C20FA0CFC9840C3F1320303F580637C
:105A400041EA0C0101EB0351704710B5C3F10004AA
:105A5000C3F1320CC4F1200E0CF5806201FA0EFC89
:105A600021FA04F100FA0EF3E040BDE8104040EAEC
:105A70000C0001EB025138BF7047401C41F100019E
:105A80005B0008BF20F0010070470000DFF848C14C
:105A900070B51CEA111E1EBF1CEA13159EEA0C0FFE
:105AA00095EA0C0F00F06F8081EA030423EA4C139F
:105AB0004EEAD47E21EA4C1141F4801143F4801364
:105AC000AE44A1FB024CA0FB0365AEF17F7E36190C
:105AD00055EB0C05A1FB034C4CF10003A0FB021C91
